:020000040800F2
:10000000C84700209D010008D728000815230008D4
:10001000192800083F150008095D000800000000CD
:100020000000000000000000000000007D2D00081E
:10003000D11D00080000000071290008812E000871
:10004000B7010008B7010008B7010008B7010008B0
:10005000B7010008B7010008D11F00085D200008A3
:10006000B7010008B7010008B7010008991B000894
:10007000B7010008B7010008B7010008B701000880
:10008000B7010008B7010008B7010008B701000870
:10009000B7010008B7010008B7010008B701000860
:1000A000B7010008B7010008B7010008B701000850
:1000B000F12E0008B7010008F52E0008B70100086E
:1000C000B7010008B7010008B7010008B701000830
:1000D000B92A0008B7010008B7010008B7010008F5
:1000E000B7010008B7010008B7010008B701000810
:1000F000B7010008B7010008B70100089D1B000800
:10010000B7010008B7010008B7010008092B000873
:10011000B7010008B7010008B7010008B7010008DF
:10012000B7010008B7010008B7010008B7010008CF
:10013000B7010008B7010008B7010008B7010008BF
:10014000B7010008B7010008B701000865290008D9
:10015000B7010008B7010008B7010008B70100089F
:10016000B7010008B7010008B7010008B70100088F
:10017000B7010008B7010008B7010008B70100087F
:10018000B7010008B7010008DFF80CD001F074F8DF
:1001900000480047C9750008C84700200648804746
:1001A00006480047FEE7FEE7FEE7FEE7FEE7FEE75C
:1001B000FEE7FEE7FEE7FEE7A12E00088901000842
:1001C0002DE9F05F0446FF48FD4901600268FE48E2
:1001D000FE490026824232D10860E661A66166616E
:1001E0002661A662666226626068DFF8E4A3DFF833
:1001F000E4B304F11005814610F0FF4F21D02088B0
:1002000000F070FF52465B4600F0FDFE0746884650
:10021000484600F08DFF3A46434600F0DBFD0746B6
:1002200088460821484600F0C9FD00F081FF3A46A3
:10023000434600F0E8FE00F062FFA88302E00E6093
:10024000FEE7AE83A76817F0FF4F1FD0B4F8008019
:10025000404600F047FF06468946384600F068FFF2
:1002600052465B4600F05DFE4B46324600F0B2FD62
:1002700006460F464FEA082000F034FF32463B4660
:1002800000F0C1FE00F03BFFE88300E0EE83208831
:100290004FF47A71B0FBF1F02884BDE8F09F2DE9AE
:1002A000FF4FCA49C84A97B00968914200D0FEE79B
:1002B0001A99103100250A6903924A6908928A69DD
:1002C0000792D1E901620C680592CA6806921A9AEF
:1002D0008B8B92890993CB8B0E9316E10778BE4BDB
:1002E000A3F5807813F807C0B444CDF844C018F8DB
:1002F000076010F802A004EB4606A3F5007413F89B
:100300000AC0E75D0CEB0609CDF82C9010F81290AE
:1003100018F80A6007EB460613F809C014F80A70CB
:100320000CEB060E18F8096002EB420C07EB4606D0
:1003300014F80970CDF84CC010F80C9013F809C0EF
:100340000CEB060B18F8096007EB460614F8097069
:1003500010F8229013F809C0B444CDF848C018F83A
:10036000096002EB820C07EB460614F8097010F8DE
:100370000C9013F809C00CEB060A18F80960DDF8B8
:100380004CC007EB460614F8097010F81C9013F8DF
:1003900009C0B444CDF850C018F8096014F809C079
:1003A00007EB4606C2EBC207DDF82C90C75DDB5DAC
:1003B0003344139318F80730E45D0CEB4306C9EBA4
:1003C000C903DDF844C003EB4307CCEBCC0307EBD8
:1003D0008303CEEB0E1C63440BEB8B0C03EB4C0343
:1003E000DDF848C00CEB4C0803EB48030AEB4A0C61
:1003F0006344DDF850C09C44069B6344DDF844C070
:1004000001930CEBCC039B0003EB4703CEEBCE0731
:1004100007EB0E1703EB47030BEB4B0703EB07133D
:10042000CAEBCA0703EB081307EB0A17DDF850C045
:1004300003EB4703CCEBCC0707EB470803EB48077C
:10044000139BDDF848C003EBC30307EB8307059B51
:100450000CEB8C0C3B4406930BEB4B070EEB4E0363
:100460007F004B4407EB4C073B44CAEB0A173B4465
:1004700003EB0807139BC3EBC30307EB830305934D
:10048000019B0E9FA3F500338FB1039F07EB030C75
:10049000089FACEB0707DDF838C007FB0CF74FEA05
:1004A000E77C07EB1C673F12039708933B46099FC5
:1004B00077B1DDF81CC0C7F5807707FB0CF7DDF8D6
:1004C00024C00CFB0373DF1703EB17631B120793A6
:1004D000199F7B43002B01DD083300E0083BDF1749
:1004E00003EB17733D4F1B11BB4203DB7F42BB4243
:1004F00000DC1F463B461A9FDDF860C000EBC200DF
:10050000FF896F436D1C2CF817300B8CAB423FF703
:10051000E5AEC1E90046059888600698C860039872
:100520000861089848610798886198B21BB0BDE8D7
:10053000F08F2DE9FF4F2549234A97B00968914272
:1005400000D0FEE71A99103100250A6903924A6922
:1005500008928A690792D1E901620C680592CA681B
:1005600006921A9A8B8B92890993CB8B0E9328E172
:100570000778194BA3F5807813F807C0B444CDF879
:1005800044C018F8076010F802A004EB4606A3F573
:10059000007413F80AC0E75D0CEB0609CDF82C9047
:1005A00010F8129018F80A6007EB460613F809C015
:1005B00014F80A700CEB060E18F8096010E0000041
:1005C000C2A507F400300240CDB5E8B5980100207F
:1005D0001F85EB51B81E19409C0300204480FFFF8B
:1005E00007EB460614F8097002EB420CCDF84CC03C
:1005F00010F80C9013F809C00CEB060B18F8096002
:1006000007EB460614F8097010F8229013F809C099
:10061000B444CDF848C018F8096002EB820C07EB2F
:10062000460614F8097010F80C9013F809C00CEB8A
:10063000060A18F80960DDF84CC007EB460614F806
:10064000097010F81C9013F809C0B444CDF850C0DC
:1006500018F8096014F809C007EB4606C2EBC20798
:10066000DDF82C90C75DDB5D3344139318F8073039
:10067000E45D0CEB4306C9EBC903DDF844C003EBB2
:100680004307CCEBCC0307EB8303CEEB0E1C634498
:100690000BEB8B0C03EB4C03DDF848C00CEB4C0868
:1006A00003EB48030AEB4A0C6344DDF850C09C445A
:1006B000069B6344DDF844C001930CEBCC039B0024
:1006C00003EB4703CEEBCE0707EB0E1703EB470315
:1006D0000BEB4B0703EB0713CAEBCA0703EB08133B
:1006E00007EB0A17DDF850C003EB4703CCEBCC0750
:1006F00007EB470803EB4807139BDDF848C003EB03
:10070000C30307EB8307059B0CEB8C0C3B44069360
:100710000BEB4B070EEB4E037F004B4407EB4C07F4
:100720003B44CAEB0A173B4403EB0807139BC3EB9C
:10073000C30307EB83030593019B0E9FA3F50033CF
:100740008FB1039F07EB030C089FACEB0707DDF8A5
:1007500038C007FB0CF74FEAE77C07EB1C673F123A
:10076000039708933B46099F77B1DDF81CC0C7F596
:10077000807707FB0CF7DDF824C00CFB0373DF1751
:1007800003EB17631B120793199F7B43002B01DDBB
:10079000083300E0083BDF1703EB1773FE4F1B1114
:1007A000BB4203DB7F42BB4200DC1F463B461A9F35
:1007B000DDF860C000EBC200FF896F436D1C2CF8B0
:1007C00017300B8CAB423FF7D3AEC1E9004605981A
:1007D00088600698C860039808610898486107987F
:1007E000886198B2A2E62DE9FF4FEC49EC4A97B038
:1007F0000968914200D0FEE71A99103100250A6974
:1008000003924A6908928A690792D1E901620C68E9
:100810000592CA6806921A9A8B8B92890993CB8BA0
:100820000E9317E1DD4B07781B1D03F5807813F855
:1008300007C0B444CDF844C018F8076010F802A00F
:1008400004EB460603F5007413F80AC0E75D0CEBF1
:100850000609CDF82C9010F8129018F80A6007EBF2
:10086000460613F809C014F80A700CEB060E18F8C7
:10087000096002EB420C07EB460614F80970CDF84C
:100880004CC010F80C9013F809C00CEB060B18F8CC
:10089000096007EB460614F8097010F8229013F867
:1008A00009C0B444CDF848C018F8096002EB820CC6
:1008B00007EB460614F8097010F80C9013F809C0FD
:1008C0000CEB060A18F80960DDF84CC007EB460689
:1008D00014F8097010F81C9013F809C0B444CDF84E
:1008E00050C018F8096014F809C007EB4606C2EBBF
:1008F000C207DDF82C90C75DDB5D3344139318F815
:100900000730E45D0CEB4306C9EBC903DDF844C0D6
:1009100003EB4307CCEBCC0307EB8303CEEB0E1CBE
:1009200063440BEB8B0C03EB4C03DDF848C00CEB82
:100930004C0803EB48030AEB4A0C6344DDF850C053
:100940009C44069B6344DDF844C001930CEBCC034C
:100950009B0003EB4703CEEBCE0707EB0E1703EB31
:1009600047030BEB4B0703EB0713CAEBCA0703EB79
:10097000081307EB0A17DDF850C003EB4703CCEB75
:10098000CC0707EB470803EB4807139BDDF848C08B
:1009900003EBC30307EB8307059B0CEB8C0C3B4479
:1009A00006930BEB4B070EEB4E037F004B4407EB1C
:1009B0004C073B44CAEB0A173B4403EB0807139B65
:1009C000C3EBC30307EB83030593019B0E9FA3F5C2
:1009D00000338FB1039F07EB030C089FACEB0707B5
:1009E000DDF838C007FB0CF74FEAE77C07EB1C6724
:1009F0003F12039708933B46099F77B1DDF81CC06F
:100A0000C7F5807707FB0CF7DDF824C00CFB0373F8
:100A1000DF1703EB17631B120793199F7B43002B10
:100A200001DD083300E0083BDF1703EB17735A4F73
:100A30001B11BB4203DB7F42BB4200DC1F463B462F
:100A40001A9FDDF860C000EBC200FF896F436D1C88
:100A50002CF817300B8CAB423FF7E4AEC1E90046EF
:100A6000059888600698C8600398086108984861EE
:100A70000798886198B259E52DE9FF4F4749484AE0
:100A800098B00968914200D0FEE71B99103100250B
:100A90000A6902924A6906928A690492D1E901625E
:100AA0000B680592CA6808921B9A94898A8B0992EE
:100AB000CA8B10926BE1394A0778121D02F58078D3
:100AC00012F807C0B444CDF858C018F8076010F801
:100AD00004A003EB460602F5007312F80AC0DF5DBE
:100AE0000CEB0609CDF8289010F8149018F80A605D
:100AF00007EB460612F809C013F80A70B444CDF8A3
:100B00002CC018F8096004EB440A07EB460613F8FA
:100B1000097010F80A9012F809C0B444CDF838C032
:100B200018F8096007EB460613F8097010F82490CE
:100B300012F809C0B444CDF83CC018F8096004EBC1
:100B4000840C07EB460613F80970CDF854C010F872
:100B50000C9012F809C0B444CDF844C018F80960EC
:100B600007EB460613F8097010F81A9012F809C03E
:100B70000CEB060E18F80960C4EBC40C07EB460634
:100B800013F8097010F80C9012F809C00CEB060A63
:100B900018F8096006E000004480FFFF980100207B
:100BA000CDB5E8B507EB460613F8097010F8349098
:100BB00012F809C00CEB060B18F8096013F809C00D
:100BC00007EB460604EBC407DDF82890C75DD25D4D
:100BD000DB5D324418F807600CEB4606DDF858C0C0
:100BE000CCEB0C1707EB470709EBC90C07EB8C079D
:100BF000DDF82CC0CCEBCC0C07EB8C07DDF838C053
:100C0000CCEBCC0C0CEB4C0C6744DDF83CC0CCEBD3
:100C10000C1C6744DDF844C00CEB8C0C07EB4C0754
:100C20000EEB4E0C07EB4C070AEB4A0C674407EB44
:100C30000B0C089F6744DDF858C001970CEBCC07FC
:100C4000C7EB8C17C9EB891C6744DDF82CC00CEB93
:100C50008C0808EB8C1C6744DDF838C00CEBCC0822
:100C600008EB8C1C6744DDF83CC00EEBCE08CCEBE7
:100C70000C1C0CEB8C0C6744DDF844C0CCEB0C1C5A
:100C80000CEB8C0C674408EB8E1C67440AEB8A085B
:100C900008EB8A1C6744CBEB8B1C674402EBC20C4D
:100CA000CCEB821CBC44059FC2EB02126744DDF80A
:100CB0002CC008970CEB4C07DDF838C04F440CEB08
:100CC0004C0C4FEA4C08DDF83CC002EB42020CEB46
:100CD0008C0C08EB4C0C6744DDF844C0CCEB0C1CCE
:100CE0006744CEEBCE0C0CEB4C0C6744CAEBCA0C41
:100CF00007EB8C070BEBCB0C07EB8C073A44059208
:100D0000019F109AA7F57A378AB1029A02EB070C75
:100D1000069AACEB0202DDF840C0069702FB0CF22B
:100D20004FEAE27C02EB1C62121202921746099A09
:100D30007AB1DDF810C0C2F5807202FB0CF2DDF86A
:100D400024C00CFB0722D71702EB176212121746BA
:100D500004921A9A5743002F01DD103700E0103F2C
:100D6000FA1707EBD262144F5211BA4203DB7F42EB
:100D7000BA4200DC17463A461B9FDDF864C0FF8983
:100D80006F436D1C2CF81720159A00EB42000A8C5B
:100D9000AA423FF790AEC1E90036059888600898EE
:100DA000C8600298086106984861049888611CB080
:100DB00090B2BDE8F08F00004480FFFF420005D0F4
:100DC000C0F3C7525242914201DC0020704700EB51
:100DD000C15070472DE9FE4F804681EA0300C00FE5
:100DE0000C46009021F0004123F00045B8EB0200D2
:100DF000A94105D24046214690461C460B46024674
:100E000023F00040104304D14046214603B0BDE822
:100E1000F08F270DC7F30A00C3F30A510290401A5E
:100E20000190402866DAC3F3130040F4801B009859
:100E3000924620B10023D2EB030A63EB0B0B01981F
:100E40005946C0F14002504600F085F906460D466D
:100E500050465946019A00F09DF910EB0800614197
:100E6000002487EA115284EAE7731A433BD0009AC0
:100E70003AB3019A012A4FEA075210DC001B61EBDA
:100E800002014FF0004202EA0752CDE90042001C85
:100E900041F5801132462B4600F09BF9B6E7001B66
:100EA00061EB0201001C41F5801300185B41201822
:100EB000A2F5001747EB030140EAD570B6196D4162
:100EC00011E06D084FEA360645EAC0754FEA075251
:100ED000001B61EB0201001C41F5801149084FEA3B
:100EE00030000019514132462B4603B0BDE8F04FA7
:100EF00000F062B90098012240000023D0EB02020A
:100F000063EBE073009821464FEAE074B8EB000011
:100F100061EB0401E9E783F000435BE781F0004106
:100F200058E72DE9FE4F81EA030404F0004421F064
:100F3000004100944FF0000B23F0004350EA0104FD
:100F400002D052EA030404D10020014603B0BDE8F8
:100F5000F08FC3F30A54C1F30A552C44A4F2F334BE
:100F60000194A0FB0254C1F3130141F48011C3F3B7
:100F7000130343F4801301FB024400FB034E840A75
:100F8000970A44EA815447EA8357A4FB076802950D
:100F90008D0A05FB07854FEA932C04FB0C542705AB
:100FA000029D4FEA065847EA1637B5EB08056EEB87
:100FB000070C870E920E47EA811742EA8312A7FBBD
:100FC0000201B6EB0B0164EB00042B0D43EA0C337A
:100FD0005E1844EB1C50DA465146E7FB0201C5F3AC
:100FE00013044FEA0B3343EA14534FEA0432019CD3
:100FF00043EA0603A4F10C040294009CCDE900B47A
:1010000000F0E7F8A2E72DE9F04D81EA030404F0CF
:10101000004B21F0004514464FF0000A23F0004138
:1010200050EA050220D054EA01021DD0C5F30A5748
:101030000246C5F31303C1F31300C1F30A5640F48B
:10104000801543F48013A7EB0608101BD64608F260
:10105000FD3873EB050002D308F1010801E0921896
:101060005B41B8F1000F03DA00200146BDE8F08DC6
:1010700000204FF48011064684460EE0171B73EBE8
:10108000050705D3121B63EB050306434CEA010C6D
:1010900049084FEA300092185B4150EA0107EDD150
:1010A00052EA030012D082EA040083EA05010843F1
:1010B00003D100224FF0004308E0101BAB4102D2E5
:1010C0000122002302E06FF0010253101AEB060028
:1010D0004CEB085110EB0A0041EB0B01BDE8F04D61
:1010E00000F06AB80EB540F2334102910021CDE91B
:1010F00000110A460B4600F06CF803B000BDC1F3C6
:101100000A5210B5C1F3130140F2FF3341F48011CC
:101110009A4201DA002010BD40F233439A42A2F213
:10112000334203DC524200F025F810BD904010BD60
:1011300000F0004230F000400AD0C10D01F56071AE
:10114000C0F3160042EA0151C2084007114370473C
:10115000002001467047202A04DB203A00FA02F101
:10116000002070479140C2F1200320FA03F3194395
:1011700090407047202A04DB203A21FA02F0002137
:10118000704721FA02F3D040C2F120029140084397
:1011900019467047202A06DBCB17203A41FA02F0A5
:1011A00043EAE07306E041FA02F3D040C2F12002C4
:1011B000914008431946704710B5002B08DA401CCF
:1011C00041F1000192185B411A4301D120F0010066
:1011D00010BD2DE9F04D92469B4611B1B1FA81F256
:1011E00002E0B0FA80F220329046FFF7B4FF0446E6
:1011F0000F4640EA0A0041EA0B0153465A460843AB
:1012000003D120463946BDE8F08D114653EA01006E
:1012100015D0C8F140025046FFF7ACFF05460E4618
:10122000504659464246FFF796FF084301D0012039
:1012300000E00020054346EAE0762C4337430A9855
:101240004FEA4453A0EB08004FEAD4240A304FF091
:10125000000244EA47544FEAD72502D50020014650
:10126000D1E7010510196941DDE908450019694117
:10127000BDE8F04DA0E70000064C074D06E0E06831
:1012800040F0010394E8070098471034AC42F6D3CD
:10129000FEF77EFF487A0008687A000870B501EB17
:1012A000020410F8015B15F0070301D110F8013BAF
:1012B0002A1106D110F8012B03E010F8016B01F898
:1012C000016B5B1EF9D12B0705D40023521E0FD4EE
:1012D00001F8013BFAE710F8013B02F10202A1EB31
:1012E000030303E013F8015B01F8015B521EF9D51B
:1012F000A142D6D3002070BD70B5244CA16AA0696C
:1013000000F008FD002840D0A06880B3A06900F07C
:10131000F9FC0028FAD1A16AA06900F041FC1C4840
:10132000E16B4FF480368160A168751EB14200D335
:10133000294601611649A06900F020FD0121A0693C
:1013400000F044FCA068B04201D2014600E029460A
:10135000E26BB04202EB4101E16300D20546401B63
:10136000A060A069BDE87040012100F02FBC002101
:10137000A06900F02BFCA16AA06900F011FCE06BF1
:10138000BDE87040002100F011BE70BD04010020D6
:10139000F0400020F8B52F4C2069002501260128D7
:1013A00039D10121606901F0E5FA0021A06900F05E
:1013B0000DFCA06900F014FC2748216A0160E16976
:1013C000C0E901154021C1604FF6FE71C0E9041566
:1013D000B10281614900C1618900C0E908150901B4
:1013E000C0E90A150563456301468563A06900F0FD
:1013F000C5FC01221021A06900F0A6FC94F824008D
:101400008DF800008DF801508DF802508DF80360C2
:10141000684601F061FA2069104C012813D000F0F1
:1014200075FB01227121204601F0E6FB33208DF887
:1014300000008DF801508DF802508DF80360684669
:1014400001F04AFAF8BD01220221204601F086FB94
:10145000F8BD000004010020F0400020003C0040E6
:1014600070B5104C2569104A2346012D9B69906088
:1014700013D011610C49184600F080FC0121A069CD
:1014800000F0A4FB09480088400509D4BDE870407D
:10149000064801211C3801F014B848081061E9E73A
:1014A00070BD000004010020F04000201C3C004002
:1014B00010B5074C2060084600F00CF820680028A2
:1014C000FCD1BDE8104000214FF0804001F08BBD01
:1014D000300000203EB504464FF0804500212846EC
:1014E00001F081FD00220121284601F094FD022C2B
:1014F00002D0012C02D004E00B2001E042F6DF60B4
:1015000001900520ADF800000020ADF80800ADF80E
:1015100002006946284601F01DFE0121284601F01F
:101520005FFD0121284601F051FD012211462846A8
:1015300001F071FD0121284601F055FD3EBDFEE799
:1015400007480178074829B1012908D10021017015
:1015500004F0DABE0078002801D104F0E5BC704741
:10156000340000200000002030B50446012189B07D
:10157000C80301F017FA154D284601F0F7FA029456
:1015800000246815ADF80240ADF80440ADF8000045
:10159000ADF80600ADF80C406946284600F09CFF07
:1015A0000B48006902280ED10121000701F0FAF969
:1015B0000494059404A90020079400F0CFFA0121B7
:1015C000002000F097FA09B030BD0000003C004058
:1015D000040100202DE9FC410121082001F0CAF995
:1015E00001278DF8047002248DF80540002510268F
:1015F0008DF8065000968DF807506946374800F080
:10160000CFFD0121072001F0B5F98DF804408DF8D8
:1016100005408DF806704FF41070314F00908DF832
:1016200007506946384600F0BBFD042206213846C3
:1016300000F007FE04220921384600F002FE8DF872
:1016400004404FF4A0508DF80540264F00908DF8CF
:1016500006508DF807506946384600F0A1FDDFF8C6
:10166000888006220421404600F0EBFD06220A2174
:10167000384600F0E6FD1D48006902280AD0694698
:101680004046009600F08CFD06220C21384600F002
:10169000D8FD0DE00121084601F06CF903208DF81A
:1016A000040000968DF807506946404600F078FD2A
:1016B0008DF8044080208DF8054000908DF806508C
:1016C0008DF807506946384600F06AFD062207216A
:1016D000384600F0B6FDBDE8FC810000000C024079
:1016E0000004024000080240000002400401002003
:1016F0002DE9FF4117460E46FFF76CFF00F050F949
:101700000121480501F04EF9404C204600F026FE2C
:101710000020ADF804004BF6FF70ADF80600332052
:10172000ADF808002015ADF80A000001ADF80C0076
:10173000374800900121204600F006FE6946204609
:1017400000F058FE0121022000F054F90446AF21B8
:10175000042000F04FF92F4D0444AF202870812160
:10176000052000F047F904440421062000F042F966
:101770000444304600F02AF92869022818D10121D2
:10178000082000F037F904440121092000F032F963
:101790000444C0210E2000F02DF90444002114203F
:1017A00000F028F904440021152000F023F9044436
:1017B0009E21022000F01EF9044400210A2000F0BE
:1017C00019F904442869022804D004210E2000F0ED
:1017D00011F904440021272000F00CF904440F21E2
:1017E0001F2000F007F904440A211A2000F002F932
:1017F00004440A211B2000F0FDF804443846FFF79A
:10180000B3FE04B02046BDE8F08100000054004063
:10181000A086010004010020012804D003480178BB
:10182000042000F0E7B8FF21FAE7000004010020DF
:101830002DE9F047544C81464FF49610E0604FF488
:101840000036524D04E0E268501EE060002A72D07B
:101850003146284600F0B8FD0028F4D10121284681
:1018600000F09EFD4FF48056E660494F04E0E068CA
:10187000411EE16000285ED03946284600F055FD43
:101880000028F4D000229421284600F010FEE660E3
:10189000DFF8008104E0E068411EE16000286ED0BE
:1018A0004146284600F041FD0028F4D0494628462C
:1018B00000F005FEE660DFF8E08004E0E068411E2D
:1018C000E16000285BD04146284600F07DFD0028FD
:1018D000F4D00121284600F063FDE66003E0E068F3
:1018E000411EE16038B33946284600F01EFD00284D
:1018F000F5D001229421284600F0D9FDE660264F5C
:10190000BF1E03E0E068411EE160A0B139462846F1
:1019100000F05AFD0028F5D00021284600F0FBFC1D
:101920001A48183000880121284600F043FDE6607F
:10193000194F3C3704E022E0E068411EE160F0B15D
:101940003946284600F040FD0028F5D0284600F032
:10195000ABFD0746E66004E0E068A0F10101E1604C
:1019600068B128888005F7D40121284600F0D3FC0F
:101970000A49284600F0E5FC3846BDE8F087BDE896
:10198000F04700F021B8000004010020005400409E
:101990000100030082000700040000100004001092
:1019A00010B5084C00221021204600F05EFC44F6E1
:1019B000FF7000F019FA20460122BDE81040102106
:1019C00000F053BC000C02400020704770B5E628C0
:1019D00002D9A0F1E70401E000F11904E1B22020EE
:1019E00000F008F80546E1B2212000F003F8284491
:1019F00070BD00002DE9F047394C4FF4961788462A
:101A00008246E7604FF40036364D03E0E068411E41
:101A1000E160A0B33146284600F0D6FC0028F5D19D
:101A20000121284600F0BCFC4FF48056E660DFF848
:101A3000B89003E0E068411EE16000B349462846E3
:101A400000F073FC0028F5D000229421284600F015
:101A50002EFDE660DFF8949003E0E068411EE1604F
:101A600068B14946284600F060FC0028F5D0514690
:101A7000284600F024FDE6601C4EB61E04E010E08F
:101A8000E068411EE16060B13146284600F04DFC3F
:101A90000028F5D04146284600F011FDE760144EBD
:101AA00009E0BDE8F047FFF78FBFE268501EE06035
:101AB0000AB9FFF789FF3146284600F085FC002867
:101AC000F3D00121284600F075FC5046FFF7B0FE28
:101AD000404502D00120BDE8F0870020FBE7000070
:101AE00004010020005400400100030082000700B0
:101AF00004000010044A01238340106809B1184310
:101B000000E09843106070470074004010B586B044
:101B10000121104800F02EFF0121480700F042FF8C
:101B20001020049003208DF8140000248DF8174035
:101B300004A9094800F034FB009401946946002090
:101B4000039400F00BF801210020FFF7D3FF06B04B
:101B500010BD0000010020000000024030B5084C1C
:101B6000236840F6FE7282409343D1E900252A4360
:101B7000D1E902510D432A4382401A43226030BD0D
:101B800000740040034A08B510440830009001601A
:101B900008BD000000740040FFF7AEBBFFF7ACBB10
:101BA000074A904201D2074801E005481038064A2A
:101BB0008B0001EA020101D5C16070478160704766
:101BC00010640240006002407D0F7D0F0029016813
:101BD00002D041F0010101E021F0010101607047F4
:101BE0002DE9F043016821F001010160002101604D
:101BF00041608160C1600161212141613C493C4AF1
:101C00003D251039904202D18D60BDE8F083384AFD
:101C10004FF474661832904201D18E60F5E7344A71
:101C20004FF474173032904201D18F60EDE7304AA3
:101C30004FF0746C4832904202D1C1F808C0E4E71A
:101C40002B4B2C4A6033984201D1CA60DDE7284C07
:101C5000294B7834A04201D1CB60D6E7DFF89080E1
:101C6000264C08F19008404501D1CC60CDE7DFF863
:101C700080804FF03D5908F1A808404502D1C1F8D5
:101C80000C90C2E71E49DFF878800839404501D141
:101C90000D60BAE71A4D1835A84201D10E60B4E7BD
:101CA000174D3035A84201D10F60AEE7144D4835CD
:101CB000A84202D1C1F800C0A7E7114D1049603514
:101CC000091FA84201D10A609FE70D4A783290426D
:101CD00001D10B6099E70A4A9032904201D10C6021
:101CE00093E7074AA83290428FD1C1F800908CE761
:101CF000106002403D000020400F002000003D2009
:101D000010640240014600200968C90700D0012084
:101D1000704700000246094B00209A4201D2084A4F
:101D200001E0064A103A8B0001D5526800E01268C3
:101D3000044B1A400A4200D0012070471064024050
:101D4000006002407D0F7D0F10B50C0601F01E03F0
:101D500004D54AB1446944F08004446180290CD020
:101D600042B10168194307E0426922F080024261F2
:101D7000802902D001689943016010BD30B5036825
:101D8000124ACC6813400A682243D1E905452C4326
:101D90002243CC6922430C6A22434C6A22438C6A58
:101DA00022434C6B22438C6B22431A4302604269EC
:101DB00022F00703D1E90B2422431A4342610A6946
:101DC00042604A6882608968C16030BD3F801CF013
:101DD0007047000001B503480099C161C16900293D
:101DE000FCD108BD8000002001B5009801E0401E34
:101DF00000900028FBD108BD0020704710B5642971
:101E000001D9642105E0C1EB01216423B1FBF3F1A9
:101E1000C9B2FFF76DFC08B1012010BDFFF7BAFA97
:101E2000002010BD70B51E4C1E4D80B10020FFF784
:101E3000F3FC217806460420FFF7DCFD06449E21D2
:101E40000220FFF7D7FD801915D0012070BD0120B9
:101E5000FFF7E2FC064601210220FFF7CBFD8019C7
:101E6000F3D100220221284600F078FE0021A0696B
:101E7000FFF7ACFE11E001220221284600F06EFEC1
:101E80000121A069FFF7A2FE06481C30008840052A
:101E900003D40121284600F014FB002070BD00008F
:101EA00004010020003C00401C4910B508610C6989
:101EB00000224FF40013012C17D0022814D1184827
:101EC000C1E905301748C1E907020B2048621648EE
:101ED000886215481038C8621448086312481838D8
:101EE00048631248C01C886310BD0D48A830C1E982
:101EF00005300F48C1E907022F2048624FF02050FB
:101F000088624FF01050C8624FF0015008634FF0E4
:101F1000085048634FF00450E5E70000040100203A
:101F2000106002400C74004020000010010080107E
:101F30000C3C004010B504460120FFF76DFC022C5C
:101F40004FF09F014FF002000ED0FFF753FD044603
:101F500040F6FF70FFF748FF00221021104800F004
:101F600084F92CB1012010BDFFF744FD0446F8E7C9
:101F70000C4C0021A069FFF729FED4E90A100143A7
:101F8000206B0143606B0143A069FFF709FE00214C
:101F9000054800F096FA6068A060002010BD0000BF
:101FA000000C024004010020003C004007480121D1
:101FB000C160016919B10169A1F58061016101691F
:101FC000B1F5806F01D200210161704780000020CF
:101FD0002DE9F041012000F09BF878B119490C7807
:101FE00000200123184E194F194D1A4A4FF0310C99
:101FF000012C08D00C7894B128700870BDE8F0412D
:10200000012000F07FB85479352C04D0641C547141
:1020100033703870F2E7087082F805C005E0547933
:10202000352C04D0641C547133702870E6E70B70B3
:1020300082F805C03870084803600220FFF77AFF75
:10204000DCE700003400002004000020B400002081
:10205000000000200E0000208C00002010B502209F
:1020600000F056F800280FD00848437800210122DC
:10207000012B06D001704270BDE81040022000F034
:1020800041B802704170F7E710BD00000600002063
:1020900030B585B00121102000F06CFC01218803CF
:1020A00000F098FC002403208DF8104003908DF878
:1020B000134003A9124800F073F80121042000F036
:1020C0005FFE022000908DF8044008208DF8050086
:1020D00001258DF80650684600F02AF8A80200F0A5
:1020E0002DFC07208DF808008DF809408DF80A4076
:1020F0008DF80B5002A800F0EFFB05B030BD0000DA
:10210000001002400149086070470000143C014083
:10211000064A014600201268044B0A4014331B682B
:102120000B4202D0002A00D001207047003C014041
:1021300030B51A498379026853B30B6893430B6037
:102140000A1D13680468A343136002790A441368E4
:10215000046823431360114A083213680468A343D8
:102160001360131D1C680568AC431C604479102C77
:1021700005D021440A68006802430A6030BD116836
:10218000046821431160196800680143196030BD7B
:102190000079084401689143016030BD003C014072
:1021A000F0B50023012403270D6804FA03F215405B
:1021B000954242D1D0F800C05E0007FA06F52CEA3D
:1021C000050CC0F800C091F804C0D0F800E00CFA8B
:1021D00006FC4CEA0E0CC0F800C091F804C0BCF13B
:1021E000010F02D0BCF1020F1FD1D0F808C02CEAB9
:1021F000050CC0F808C091F805C0D0F808E00CFA4A
:1022000006FC4CEA0E0CC0F808C0D0F804C02CEA5A
:10221000020CC0F804C0426891F806C00CFA03FC36
:102220001FFA8CFC42EA0C024260C268AA43C260F8
:10223000CA79C568B2402A43C2605B1C102BB3D375
:10224000F0BD4B07DB0E9A40C90810B500EB8100CA
:10225000016A0F249C40A1430162016A114301629B
:1022600010BD41837047018370470AB101837047F5
:10227000418370474069806880B27047D0F8CC00D5
:102280000068C0F341407047084490F89B027047D3
:1022900000EB8100D0F85002704710B504460022D0
:1022A0001046C4F8102204EB8203C3F81402C3F8EA
:1022B0005002A31883F88C02521CD2B20F2AF2D318
:1022C0000820A4F8B202204602F0E0FD204602F009
:1022D000E5FB204602F0FCFA0121204602F036FE22
:1022E000204602F063FB204602F0FAFB002010BDFE
:1022F000D0F81002704710B502F0B3FD002010BDF9
:102300000022431883F89B2200EB4113C3F8C0223C
:1023100002F0F5BCFEE70029018802D041F480619B
:1023200001E021F480610180704702460020938A19
:10233000128B43EA024323F07F42914300D10120F4
:102340007047C943818270470029018802D041F05B
:10235000010101E021F00101018070470D4910B534
:10236000884202D101214C050AE00B49884202D182
:1023700001218C0504E0094988420AD10121CC05DC
:10238000204600F01BFB2046BDE81040002100F075
:1023900015BB10BD0054004000580040005C0040D8
:1023A0000029018802D041F4807101E021F480719C
:1023B000018070470029018802D041F4007101E0DA
:1023C00021F40071018070470CB502460020009294
:1023D0000A0F21F07F41019202D0009A143202E0EC
:1023E000009A090C1832009212680A4200D00120AB
:1023F0000CBD00007FB5044680880D4620F03F06E6
:10240000684600F0FFFA26490298B0FBF1F189B264
:102410000E43A680228822F001022280214B2A68E6
:102420009A421BD85200B0FBF2F080B2042800D2CE
:102430000420491C2184A083208840F001002080D2
:1024400021884FF6F5300140A8886A891043084377
:102450002080A8892989084320817FBDEB88A3F5C6
:102460003F46FF3E05D102EB4202B0FBF2F080B2E4
:1024700008E002EBC20303EB0212B0FBF2F080B201
:1024800040F48040020501D140F001004FF4967203
:1024900051434FF47A72B1FBF2F140F40040C8E7C7
:1024A00040420F00A0860100008AC0B2704712B1FE
:1024B00041F0010101E001F0FE010182704701825B
:1024C00070470029818B02D041F4806101E021F442
:1024D0008061818370470000F0B502220023858B64
:1024E00001244FF24006354085830284858B8E6837
:1024F000022E3ED08A8802B10224274A13681B02AA
:1025000003D5136823F400031360234A7C32136855
:102510001268C3F38813204EC2F30272361F366866
:102520001E4F06F03F06B7FBF6F65E43B6FBF2F22F
:10253000CB88B3F5007F2CD06301B2FBF3F200BF70
:1025400002EB82028B685200B2FBF3F2521D92B290
:102550000A23B2FBF3F202F00103D21A4FF6FF7422
:10256000C2F34F0204EA0323941EFE2C01D302227D
:102570000023CC881A43144304840A884B881A43E6
:102580008B8889890B431A432A4342F40061818373
:10259000F0BD120AD4E700000838024000127A00A9
:1025A00038B5044600208DF8000000F029F8607866
:1025B000217822790843E17811430843A178012268
:1025C00008438DF800002021684600F003F938BD6B
:1025D00038B5044600208DF80000012238216846F5
:1025E00000F09EF82078617801220843A178084322
:1025F0008DF800003821684600F0ECF838BD000086
:10260000F0B5012187B0080300F0E4F90121084684
:1026100000F0B0F90121102000F0ACF901211020E8
:1026200000F0A8F90121102000F0A4F9394E05228C
:1026300011463046FFF705FE052206213046FFF71A
:1026400000FE052207213046FFF7FBFD02258DF82D
:10265000045000248DF8064020208DF8075000908B
:102660008DF8055069463046FFF79AFD80200090AE
:1026700069463046FFF794FD402000906946304699
:10268000FFF78EFD244F384600F070FAADF8104089
:102690002802ADF812000720ADF81800ADF8084088
:1026A00008264FF48270ADF80C40ADF81460ADF818
:1026B0000A00ADF80E40ADF8164002A9384600F009
:1026C000ABFA0121384600F03FFA009601268DF85A
:1026D0000460124F8DF806408DF805506946384663
:1026E000FFF75EFD08213846FFF7BDFD8DF8044079
:1026F0008DF806408DF8055000968DF80740694624
:102700003846FFF74DFD694638460095FFF748FD0E
:1027100007B0F0BD00000240003001400010024050
:102720002DE9F04114460546012A02D941F0C006C0
:1027300001E041F080060C4F08213846FFF791FD7B
:10274000304600F013F806E0002000F00FF8641E99
:1027500005F8010BA4B2002CF6D13846BDE8F041D3
:102760000821FFF780BD0000001002402DE9F04174
:10277000154C4FF4805607462660144D03E0206840
:10278000411E216058B10221284600F019FA0028A4
:10279000F5D03946284600F03DFA266007E000F003
:1027A00017F80DE02168481E20600029F7D00121AC
:1027B000284600F005FA0028F4D0284600F028FA50
:1027C000C0B2BDE8F08100000001002000300140EF
:1027D000FEE700002DE9F041144605460E46012AA9
:1027E00001D941F040060B4F08213846FFF739FD6B
:1027F0003046FFF7BBFF05E02878FFF7B7FF641E00
:10280000A4B26D1C002CF7D13846BDE8F041082178
:10281000FFF729BD00100240FEE71FB5002040244D
:102820008DF804408DF8050007218DF806108DF80D
:1028300000008DF807008DF8080001A8FFF7B0FE32
:102840008DF80C4010208DF80D0020208DF80E0022
:1028500003A8FFF7BDFE3F208DF8000001222221D2
:102860006846FFF7B7FF50208DF80000012238219D
:102870006846FFF7AFFFAA208DF8000001223B2138
:102880006846FFF7A7FF0A208DF8000001223C21CF
:102890006846FFF79FFF4C208DF800000122302191
:1028A0006846FFF797FF03208DF8000001223D21C5
:1028B0006846FFF78FFF7F248DF8004001223E21FC
:1028C0006846FFF787FF8DF8004001223F216846E8
:1028D000FFF780FF1FBD704770B50F21C4780278E5
:1028E00001234FF0E026E4B1124C246804F4E064C4
:1028F000C4F5E064C4F30724C4F10405E14044785E
:10290000AC4085780D4025430B4C290111550078CA
:1029100000F01F018B40400906EB8000C0F8003139
:1029200070BD02F01F008340500906EB8000C0F824
:10293000803170BD0CED00E000E400E00249084386
:1029400002490860704700000000FA050CED00E045
:10295000024A1140014302480160704780FFFF1F97
:1029600008ED00E0014801F07EBC00009C0400205E
:1029700070470000044A0029116801D0014300E0BB
:10298000814311607047000030380240044A00293A
:10299000116801D0014300E08143116070470000DD
:1029A00034380240044A0029116801D0014300E094
:1029B000814311607047000040380240044A0029FA
:1029C000116801D0014300E08143116070470000AD
:1029D00020380240044A0029116801D0014300E078
:1029E000814311607047000044380240044A0029C6
:1029F000116801D0014300E081431160704700007D
:102A00002438024070B5204A1168204C11F00C01A6
:102A100004D06610042903D0082903D004601BE009
:102A2000066019E01849091F0B68C3F380550B684D
:102A300003F03F0315B1B6FBF3F301E0B4FBF3F38E
:102A40000C680968C4F388146343C1F30141491C4D
:102A50004900B3FBF1F1016011680F2303EA111182
:102A60000B4B5C5C0168E14041601468072505EA96
:102A700094241C5D21FA04F48460126805EA523241
:102A80009A5CD140C16070BD083802400024F40057
:102A900044010020F0B505460024204605E00E194B
:102AA000E700AE5DBE403043641C9442F7D3012B77
:102AB00000D100BAF0BD000010B50F4C60212046D7
:102AC00000F085F8002816D0204600F0A1F80C4C44
:102AD00041BA0A4A206A22F81010401C206240289D
:102AE00009D3002020623222064B0448A16AFDF778
:102AF000D6FB0120606110BD00380040704000200E
:102B0000B4000020FC3D002010B50D4C02212046F1
:102B100000F056F8002811D00A480069022805D1B3
:102B2000FFF76AF901460420FFF72CF8FFF764F974
:102B300001462046BDE8104000F06CB810BD000012
:102B4000003C0040040100200029018802D041F02F
:102B5000400101E021F0400101807047002A828895
:102B600001D00A4300E08A4382807047114910B5C2
:102B700088420AD1841401212046FFF737FF2046FE
:102B8000BDE810400021FFF731BF0B49884202D158
:102B90000121041404E0094988420AD10121C41327
:102BA0002046FFF70BFF2046BDE810400021FFF74D
:102BB00005BF10BD0030014000380040003C00401F
:102BC0000246002012890A4200D00120704710B549
:102BD00001F00F040122034602FA04F4002009095F
:102BE0008A4091B29A88A4B20A401989214202D03F
:102BF000002A00D0012010BD090901238B40002AC2
:102C0000828899B201D00A4300E08A4382807047EB
:102C1000808970478181704730B502884C8802F402
:102C200041530A88CD8822438C882C4322430C8947
:102C300022434C8922438C892243CC8922431A4364
:102C40000280828B22F400628283098A018230BD75
:102C50001CB504460E48012150F82400FFF78AFEF7
:102C60000B480021083830F81400009001208DF83E
:102C700004008DF806108DF8070002208DF805007D
:102C80000448694650F82400FFF78AFA1CBD00008A
:102C900074790008F00000200349044A31F810104C
:102CA00052F82000418370476C790008F000002042
:102CB0000349044A31F8101052F82000018370478C
:102CC0006C790008F0000020044951F820104A698E
:102CD000034B33F8100042404A617047F000002077
:102CE0006C79000870B5044622480E4686B050F84C
:102CF00024000121FFF73EFE01218803FFF76AFE51
:102D00001C4800258DF81050001F8DF8135030F826
:102D100014000390184803A950F82400FFF740FA64
:102D2000012E25D11348C01F015D401E005D00F03B
:102D300027F81048801E30F8140000908DF80450D9
:102D400008208DF8050001258DF806506846FFF72C
:102D5000EFF90848801F005D8DF808000F208DF8FE
:102D600009008DF80A008DF80B5002A8FFF7B4FD9A
:102D700006B070BD68790008EC00002070470000C4
:102D800010B58A0721F003040649130F21440F22CE
:102D90000C689A4094430C600A68984002430A60A9
:102DA00010BD0000083801400CB500222E490192E8
:102DB0000092086840F4803008604FF4A06308680F
:102DC00000F4003000900198401C0190009810B968
:102DD00001989842F3D108688303244841D5012221
:102DE0000092224A3832136843F080531360204A1D
:102DF000136843F48043136002680260026842F47F
:102E000000420260026842F4A0520260031F194AA5
:102E10001A600A6842F080720A600A689201FCD562
:102E2000154B40F205621A60026822F0030202604C
:102E3000026842F0020202600268C2F38102022AC2
:102E4000FAD1026822F400020260084A0B487C3280
:102E50001060086840F08060086008680001FCD5D8
:102E60000CBD0092EDE70000003802400838024037
:102E70000070004008544007003C02408040003091
:102E800010B500F0A5F904480078012803D10348E3
:102E9000C188491CC18010BD3400002006000020FC
:102EA0000F4810B5016841F0010101600C4A002192
:102EB0000832116002680B4B1A400260031D0A4A77
:102EC0001A60026822F48022026005480C3001601A
:102ED000FFF76AFF05494FF00060086010BD000071
:102EE00000380240FFFFF6FE1030002408ED00E03D
:102EF00001F0CCBC38B500208DF800002E480078D9
:102F000048B1012239216846FFF70AFC0622272131
:102F10002A48FFF705FC2A4D0221284600F06FF8E9
:102F2000002848D00221284600F05AF8254CA07805
:102F300003280BD0A078042810D0A078062815D03C
:102F4000A078E8B1A07807281ED029E00120FFF77B
:102F5000BBFE0320FFF7A0FE00201FE00020FFF7CC
:102F6000B3FE0320FFF798FE012017E00120FFF7D2
:102F700093FE0020FFF790FE0320FFF7A5FE0FE071
:102F80000320FFF795FE0BE00120FFF785FE0020F0
:102F9000FFF782FE0220FFF77FFE0320FFF77CFE93
:102FA000284600F02AF8084980B2A0800988014428
:102FB000284600F0CDF838BD83000020AB0000208B
:102FC00000080040060000200200002000290188BF
:102FD00002D041F0800101E021F0800101807047C2
:102FE000C943018270470029018802D041F00101E4
:102FF00001E021F0010101807047406B70470246FB
:103000000020138A92890B4202EA010202D0002AB0
:1030100000D001207047002A828901D00A4300E0D5
:103020008A4382817047000070B58AB00121042074
:10303000FFF7B8FC4FF4A060FFF780FC1E208DF86E
:10304000200000248DF821408DF8224001258DF8C4
:10305000235008A8FFF740FC0120FFF7F9FD0020EE
:10306000FFF7F6FD0320FFF7F3FD1A481A491B4E40
:103070000068ADF81C40B0FBF1F0401E4FF6FF7148
:10308000ADF814000691ADF8164005A9304600F0E1
:1030900061F801213046FFF799FF1148ADF8004073
:1030A000ADF8025040880290ADF80C4069463046B9
:1030B00000F018F80021304600F044F80122022107
:1030C0003046FFF7A8FF01213046FFF78CFF0AB01A
:1030D00070BD00001C000020706408000008004063
:1030E0000000002030B5028C22F001020284028C24
:1030F0008388048B22F0020224F073050C882C4391
:103100008D8915434A882A430C4DA84202D00C4DA4
:10311000A8420DD122F00805CA8923F440732A433E
:1031200022F004058A882A430D8A1D434B8A2B43CB
:103130008380048389684163028430BD00000140BC
:1031400000040140028B22F008020A430283704708
:103150004163704730B50288164B174C98420DD02A
:10316000A0420BD0B0F1804F08D0144DA84205D03A
:10317000134DA84202D0134DA84203D122F070058E
:103180004A882A43104DA84206D0104DA84203D0C9
:1031900022F440750A892A4302804A68C2620A887A
:1031A0000285984201D0A04201D1897A018601218D
:1031B000818230BD00000140000401400004004055
:1031C00000080040000C00400010004000140040C7
:1031D0000348C169002902D0C169491EC161704715
:1031E0008000002010B500224FF6FF7300EB420470
:1031F000B4F88C44240409D49A4205D000EB420070
:1032000041F40041A0F88C14D0B210BD521CD2B2CF
:10321000082AEBD31A46F7E770B500EB43140125F3
:1032200084F8AE52C4E9AE1294F8C41201B102217E
:1032300084F8B4121946FFF763F8002070BD70B52A
:103240000D4600EB4314002184F8AE12C4E9AE52DF
:1032500094F8C52202B1022184F8B4121946FFF78E
:103260004FF8002070BD30B402240C7501244C7559
:103270000024CC820A8315064C8300EB431202D54E
:1032800082F8C44201E082F8C542002330BC1A46ED
:1032900000F01AB8D0F8AC2401211172D0F8AC04B7
:1032A00000218172704770B500EB431404F52C7453
:1032B000012504F8025C02252571C4E902121946B1
:1032C000FFF71EF8002070BD70B50C461D4616466F
:1032D0004979FEF7D9FF01460120E3780246012B28
:1032E0000AD0022B07D1012910D0032911D00429BB
:1032F00001D1E270032070BD217861700921217035
:10330000A660A58122770221E17070BDE2700020E5
:1033100070BDE270022070BD70B500EB4314002553
:1033200084F8AE52C4E9AE121AB194F8C51259B17C
:1033300002E0012184F8C512022184F8B412194672
:10334000FEF7DEFF002070BD84F8B452F7E710B539
:1033500000EB421303F52C73002403F8024C032402
:103360001C7199600821D9601146FEF7C9FFC0B2EF
:1033700010BD0221002200EB4103491CC9B2A3F891
:103380008C240829F7D30020704770B50C46002123
:1033900021706170A17001220546E2702277402001
:1033A000A07184F8201084F821202179284600F0AB
:1033B00025F86179284600F021F8002070BDD0F88A
:1033C000AC2401215172D0F8AC040021C1727047C5
:1033D00070B50C25044605290AD0042908D0062911
:1033E0000BD12570D0F880000068BDE87040004720
:1033F000D4F88000406C8047257070BD082908D241
:1034000000EB410101F28C40B1F88C14C1F30E01C4
:1034100001800020704730B442F08002DDE90254A0
:103420000A7506224A750322CB82B2EB132F02D112
:1034300040F2094200E000220A834C8323462A46D8
:1034400030BCFFF741BF0A8803781A440A8001782C
:10345000084470472DE9FC4100F58873CDE900323E
:1034600015461E460C464FF400730022FFF7D3FFAB
:10347000070009D1334604F1500204F13E0104F182
:103480003400009500F06BFF3846BDE8FC817CB548
:103490001646044600F58870CDE900060D464FF447
:1034A000807300222046FFF7B6FF002830D104F5D4
:1034B0008874082E217805F8221F61786970A17838
:1034C000E27801EB022169802179297161796971C2
:1034D000A179A971E179A4F58874E97118D904F585
:1034E0008C742178627801EB02212981A178E2783D
:1034F00001EB022169812179627901EB0221A98125
:10350000A179A973E179E973217A2974617A6974DF
:103510007CBD7CB51E46069D00F5887442F4407360
:103520000022CDE90045FFF776FF002814D161782D
:10353000032911D121788A1EAA4200DC1546A41C59
:10354000AAB2002104E0635C891C06F8013B89B241
:103550009142F8D3002131707CBD00002DE9F05F6D
:10356000002680468E74087F0B250927DFF8B89166
:103570000C464FF0080B4FF0050A0C2817D2DFE875
:1035800000F0CF060E3941576879829CADC162794F
:1035900004F114014046FFF7DAFE022065E061798C
:1035A0004046FEF771FE012802D003281ED0B7E086
:1035B000207D618B00F0800051B141F28832A9F882
:1035C0000020802802D084F81CA008E0032005E039
:1035D0003222A9F80020802806D007202077404614
:1035E000FEF748FE20829BE02777F8E7257784F8EE
:1035F00012A095E02379227B4046A168FFF753FE95
:10360000042032E021794046FEF73EFE01280DD02D
:10361000042870D0032873D04046FEF72BFE218A81
:10362000411AB9F8000081426AD879E02777F3E7B8
:10363000617908EB411090F8C51281F0010180F822
:10364000C5126379227B4046A168FFF765FE06201C
:103650000BE061794046FEF717FE012804D00428EC
:1036600049D0022803D041E00720207758E084F8B1
:103670001CA055E00022237911464046FFF713FEB7
:1036800084F81CB04CE021794046FEF7FDFD07466A
:10369000012830D0032F33D04046FEF7EBFD218ABE
:1036A000411AB9F8000081422AD8042F38D1607835
:1036B00020700420A074032632E06179002208EB18
:1036C000411090F8C51281F0010180F8C5126379AC
:1036D00011464046FFF720FE0A20C6E761794046C2
:1036E000FEF7D2FD012806D0022807D0032807D014
:1036F00016E000E004E06078207011E027770FE02A
:1037000025770DE0A07B401CC0B2A073022802D830
:103710000120087704E084F812B06078087002266F
:103720003046BDE8F09F0000800100202DE9F04107
:103730000C468046012589780027FF2092B02E464E
:103740000A2952D2DFE801F0052332525B6D8097DF
:10375000AAB4082221464046FFF799FE002844D12A
:1037600094F82900A0714046FEF7C5FDA670A07927
:103770000023CDE9007061791A46404600F05AFDF9
:10378000A0790023CDE9007021791A462AE012229F
:1037900021464046FFF77BFE002826D1D4F8800062
:1037A000C16904F12200884702207FE001222146FE
:1037B000404600F01EFF00287BD1A41CA677D4F859
:1037C0007E00006A80470320207000970197A27F47
:1037D000A1780023404600F02DFD00970197A27FBD
:1037E000E1780023404600F025FD62E009222146F1
:1037F0004046FFF72FFE00285BD1042056E0E28E02
:1038000021464046FFF726FEA0BBD4F8800004F115
:10381000500204F13E01436A04F134009847052048
:1038200044E094F83020062652B1009002AB2146C5
:103830004046FFF76EFEE8B9D4F88000816A11E0D7
:10384000D4F88000816A12E094F8312007265AB13A
:10385000009002AB21464046FFF75BFE50B9D4F81A
:103860008000C16A02A803E0D4F88000C16A13A0F6
:103870008847A6701DE094F83220082652B10090C7
:1038800002AB21464046FFF744FE90B9D4F88000D1
:10389000016BE7E7D4F88000016BE8E794F8392082
:1038A0002146404600F0B1FE18B90920A07000E0A2
:1038B000002512B02846BDE8F08100004E2F4100DF
:1038C0002DE9F0411E46144688460546069F00F045
:1038D00081FF002000F032FF21462846FFF755FD0A
:1038E0007C340B4AC4E9006740F2AC400021C5F8C3
:1038F000AC2411724059417241462846FEF7CDFC76
:103900006068006880472846BDE8F04100F042BF8B
:103910008401002070B505460A4C012012B1012A2D
:1039200008D102E02378E27801E06378A2782846A3
:10393000FFF799FC044AD168491CD160042900D9D9
:10394000042070BD7C430020580100200149002064
:10395000087070476C43002070B505460124FEF7DF
:10396000C7FCD8B1104801782846FEF791FC0D2815
:1039700013D10E480E4A016891420ED1A0F12002E7
:1039800041685268914209D1007B20B1012805D0DD
:10399000022802D002E0002400E002240348103094
:1039A000C473204670BD00007C4300205C430020AF
:1039B000555342530A490A22012802D002280CD04A
:1039C0007047084B1878401CC0B218700A2804D2FF
:1039D000062008700120C87070470A707047000008
:1039E0006C430020680100202DE9F05F0D46814600
:1039F0000126FEF77DFC00282AD0514C0027DFF875
:103A000044B12078DFF840814FF0080A0B281FD21C
:103A1000DFE800F0060B2359626E767E834D92003C
:103A2000484600F095F9012013E021222A75FF2273
:103A30006A75EF822F830023484629466F831A4612
:103A4000FFF742FC06004FF0020002D0032E02D026
:103A500073E0207071E0607027E0A1222A75FE22D9
:103A60006A75EF822F830127364A484629466F83BD
:103A70003B460832FFF728FC06004FF0030102D056
:103A8000032E11D059E09BF808208BF8482012B182
:103A900098F801200AB121704FE088F80170D5F83C
:103AA0008000006C804748E061700920D1E76B79A5
:103AB000002229464846FFF7D6FB06003DD18BF889
:103AC00048706078C5E7484600F026FB08B9042036
:103AD00008E0FFF76FFF30E0484600F07DFA00286D
:103AE000F7D1052084F8000088F80070002624E053
:103AF000484600F0B7F90028EBD184F800A0F3E7BE
:103B0000484600F0B9FA0028E3D160782070EDE76C
:103B10002946484600F01AF80FE0D5F88000C06B3F
:103B2000804710F0FF0002D0012803D005E084F8A0
:103B300000A002E0062600E004263046BDE8F09F23
:103B40006C4300207C430020680100202DE9F35FD6
:103B50000098FEF7CDFB002821D07A4C05277A4843
:103B600021797A4D00264FF008094FF0070B4FF0EE
:103B700002084FF0010A092911D2DFE801F010050F
:103B80001233609EB2C8D4006E4943781F22303988
:103B90000098FFF754FB84F805A084F80480BDE882
:103BA000FC9F41780098FEF76FFB012806D00228A1
:103BB0006BD00428F3D185F800A0B1E06148EE6035
:103BC000303884F80580017B806801F0800100288E
:103BD00066D06860A068A860802901D00420AEE0AB
:103BE0000320ACE0804601780098FEF74DFB0128E9
:103BF00002D0617903291CD00320EE6060716868EF
:103C000040280DD998F800304022A9680098FFF7A5
:103C100003FB686840386860A8684030A860BEE769
:103C200090B382B298F80030A9680098FFF7F4FAD0
:103C300034E00428B3D12E7084F804B00EE080463E
:103C400041780098FEF720FB012809D0022829D0EE
:103C50000428A4D185F800A084F8049067719EE739
:103C60000420EE606071686840280FD998F8013030
:103C70004022A9680098FFF7E2FAA8684030A860DF
:103C80006868403868608AE70AE057E040B182B26D
:103C900098F80130A9680098FFF7D1FA6E607EE7C6
:103CA00027717CE7A96898F80130009802B040229B
:103CB000BDE8F05F4039FFF7C2BA22496771103999
:103CC0003F22A160A2810D228E54521E12F0FF02EB
:103CD000FAD10E7003783F220098FFF79DFA062074
:103CE0002DE001780098FEF7CFFA012805D00428CE
:103CF00095D12E7084F804B051E7EE606771A0781A
:103D00002070DDE90001FFF727FEE07347E7DDE9FA
:103D100000010022FFF7FEFD58B9287802280DD1D6
:103D200084F804903BE7DDE900010122FFF7F2FD92
:103D300020B1042893D184F80F8030E76079207196
:103D40002DE700006C4300207C4300205801002038
:103D500010B5FEF7CDFA002148B10848064A0260C6
:103D6000074A42604173054A01203032D07005484D
:103D7000C1600548017010BD555342433C430020CB
:103D800050403020580100206801002070B50C4CD4
:103D900006460025617831B100F01DFF617830469C
:103DA000FFF72CFB65702178002907D0304600F022
:103DB00012FF21783046FFF721FB257070BD00000F
:103DC0007C4300202DE9FC41064691F843000C4657
:103DD000082803D194F84500502806D0D1F8800077
:103DE000006C80470020BDE8FC8194F852001C4D17
:103DF000010604D5E870B4F85400A88003E0A87068
:103E0000B4F85400E88094F85A00010604D5E8702C
:103E1000B4F85C00A88003E0A870B4F85C00E88007
:103E2000A9783046FFF7DEF96870E9783046FFF789
:103E3000D9F92870E8880227CDE900702034697824
:103E400063782278304600F062FAA888CDE90070E5
:103E5000637822782978304600F059FAC2E70000EA
:103E60007C43002070B50324FEF742FA30B32149A9
:103E7000214B0025C8780122012802D0022836D122
:103E80001DE01E483F248026846006730A26867340
:103E90008B6005238B701023C6185B1EF57313F01F
:103EA000FF03F9D11A23C3734474C4740A71072041
:103EB00008700320C8730220C870032417E0C87B71
:103EC00020B101280ED002280FD010E09878030608
:103ED0000948A0F1100001D5027300E00573CA7013
:103EE000002404E0CA70012401E0CA7002242046C4
:103EF00070BD00006C4300203C4100203C4300208A
:103F00002DE9FF4F314E81B04FF0030986F8009044
:103F1000984615460198FEF7EBF9002852D02C4C34
:103F200001274FF0020BE0784FF0000A012802D081
:103F3000022847D12DE0274880215246C0F808804A
:103F400001730A2181730299A16010214318491E4F
:103F5000DA7311F0FF01F9D12821C173290E4174E0
:103F6000290C8174290AC1740575C8F34F21ADF875
:103F700000109DF8011081759DF80010C175277122
:103F80000720207084F80F9084F803B086F8009022
:103F900018E0E07B38B90198FEF7AAF918B1E7708C
:103FA00086F800A00EE0E07B012805D10198FEF71D
:103FB0009FF908B1E77005E0E07B022802D1E770C5
:103FC00086F800B0307805B0BDE8F08F54010020CD
:103FD0006C4300203C43002070B50324FEF788F9B1
:103FE00020B322490123224AC878012802D002289E
:103FF0003AD11CE01F4808248460802404730A24FA
:1040000084738A6004228A70102200248518521E4C
:10401000EC7312F0FF02F9D12522C2730B71072055
:1040200008700320C8730220C87003241CE0C87BFA
:1040300020B1012813D0022814D015E00C481478C0
:104040001038C4705478847094784470D4780470B4
:1040500094794472D2790272CB70002404E0CB7060
:10406000012401E0CB700224204670BD6C43002087
:104070003C4100203C43002070B50324FEF738F992
:1040800038B322490123224AC878012802D00228E5
:1040900039D11FE01F483F248025846005730A251D
:1040A00085738A608A784A7006228A7010220025F9
:1040B0008618521EF57312F0FF02F9D10322C27363
:1040C0000574C4740B7107200870CA730220C8708D
:1040D000144618E0C87B20B101280FD0022810D068
:1040E00011E00B4814781038C471547884719478B6
:1040F0004471D2780271CB70002404E0CB700124AB
:1041000001E0CB700224204670BD00006C4300200B
:104110003C4100203C43002070B50324FEF7E8F842
:1041200010B31A490125C878012802D002282BD1E2
:104130001BE0174800230622836003738273154A2D
:104140008A603F228A8103248C7010228618521EB6
:10415000F37312F0FF02F9D1C3730D7107200870D9
:10416000CC730220C87003240EE0C87B20B1012864
:1041700005D0022806D007E0CD70002404E0CD7001
:10418000012401E0CD700224204670BD6C43002064
:104190003C4300205C430020F8B51D4614460E4603
:1041A0000327FEF7A5F880B320490123C87801282A
:1041B00002D0022838D129E01D4800270A22856054
:1041C0000773827310228E608618521EF77312F0E6
:1041D000FF02F9D12A22C273220E4274220C827489
:1041E000220AC2740475C5F34F22ADF800209DF871
:1041F000012082759DF80020C2750B7107200870A0
:104200000320C8730220C87003270DE0C87B20B1CB
:10421000012805D0022805D006E0CB70002703E076
:10422000CB7001E0CB7002273846F8BD6C4300200C
:104230003C43002070B500EB4114059D0AB184F8A1
:10424000AC22B4F8B222AA4202D00DB1A4F8B25204
:1042500094F8AF229A4202D00BB184F8AF3200F04A
:10426000D8FC002070BD38B5054600240020009021
:10427000284600F0D1FD002847D0284600F0D3FDA5
:104280000090009808B9002038BD0098C0F3C00025
:1042900018B1284601F016FD04430098C0F3001041
:1042A00018B1284601F05CFC04430098C0F34010AC
:1042B00018B1284601F09BFA04430098C0F38060CF
:1042C00018B1284601F0B5FB04430098C0F34060E4
:1042D00018B1284600F089FE04430098C0F300603E
:1042E00018B1284601F019FB04430098C0F3407050
:1042F00018B1284600F03FFE04430098C0F3405038
:1043000018B1284600F04EFE04432046BCE72DE9D4
:10431000F04100EB4104DDE9066704F28C4594F8B6
:104320008C4404F07F0C00EB411404F52B7484F8EA
:1043300001C02D78C5F3C015A57022706671E780A5
:10434000E370002222766276A4F52B7413B9012261
:1043500084F8B02200F05DFC0020BDE8F0812DE97A
:10436000F8439046894605461978089A2970597885
:1043700069709978DC78184601EB04216980197915
:1043800029715C796C719C79AC71DC79EC71037A80
:104390002B72092A15D90922ADF80020022910D85C
:1043A00000270BE06946FFF74EF8417804290AD050
:1043B0000178BDF800201144ADF800102979B94208
:1043C000F0DCBDE8F88307EBC70202EB09040178D3
:1043D0002170417861708178A170C178E1700179B4
:1043E0002171417961718179A171C179E171017A9C
:1043F00021722179002602290CD90EE06946FFF7C7
:1044000022F8417805290BD00178BDF8002011442D
:10441000ADF800102179B142F0DC7F1C7FB2CDE70E
:1044200008EBC60102780A7042784A7082788A7076
:10443000C278CA7002794379761C02EB03228A8023
:1044400082798A7176B2E5E72DE9FC4702270C46AE
:1044500005468DF8007009784FF000084FF001090B
:1044600004F1200A00F2AC460D290FD2DFE801F07A
:104470000F07199D9D9D5770838B629D9000284664
:10448000FDF739FF002801D184F800808DE028462F
:10449000FDF72EFF002803D02846FEF76AFF27709D
:1044A00083E0D4F8800080688047D5F8AC044746A4
:1044B00080F809803168284681F80A900021FEF7CB
:1044C00091FE607180212846FEF78CFE20712846FF
:1044D000FDF711FF002868D1241DE06FC0688047F8
:1044E0002846FDF7CBFEC0B26077062104F8041C15
:1044F000E16F89698847A078CDE90070637F227FEA
:1045000021782846FFF703FFA078CDE90070637F8C
:10451000227F6178241F2846FFF7F9FE45E02146F7
:104520002846FFF703F9F8B9D4F88000406B8047BC
:104530000A2018E0D4F88000806B8047012834D12D
:10454000E06F214602682846904768B907200AE0D4
:10455000E06F21468268284690478DF800009DF85C
:10456000000010B9082020701FE09DF800102046C0
:10457000FEF72EFF19E0E06F2146C26828469047FB
:104580008DF80000F1E721462846FEF7E7FF0CE032
:1045900021462846FEF7F9FED4F88000406880479F
:1045A000E06F51464268284690472846FDF7A0FE36
:1045B00000281CD1D5F8AC04C07A002817D1D4F853
:1045C000800000698047D5F8AC14284681F80B902C
:1045D0002146FEF7DAFED4F8800040688047E06F9D
:1045E0005146426802B02846BDE8F0471047BDE892
:1045F000FC8730B400230B7505244C75CA820B83ED
:104600004B8330BC1A46FEF75FBE30B400230B75F7
:1046100009244C75CA820B834B8330BC1A46FEF7C3
:1046200053BE704701490020487070473400002095
:1046300070470000094910B500200870084907209C
:1046400008700220FEF728FB0020FEF731FB012254
:10465000BDE8104002210348FEF7DDBC0000002049
:10466000080000200008004070B50220FEF720FB83
:10467000002202210E48FEF7CEFC0E4800680E4CC8
:10468000002528B12078012802D001F099FC25707E
:10469000207801280BD101F027FE0120FEF7FCFA5B
:1046A000012020700548058005490720087070BD6D
:1046B0000008004090000020340000200C00002082
:1046C0000800002070477047704710B54FF4FA702B
:1046D00000F0F8F8BDE8104000F002B870470000A4
:1046E00010B50F4C607810B101280ED113E00D49C0
:1046F000002002F09BFB10B14FF0FF3010BD0A48C4
:10470000007B012803D001206070002010BD022032
:10471000FEF7CEFAFBE7FCF713FF0020F4E70000FA
:1047200034000020E00900202C4100207047704731
:104730007047704770477047012070471CB50121D2
:104740000420FEF717F9022101208DF805100090D2
:104750008DF8040000208DF80600074C8DF8070046
:1047600069462046FDF71CFD01212046FDF77BFD33
:10477000C82000F0A7F81CBD00080240044800292A
:104780004FF0010101D0FDF76CBDFDF76CBD0000DD
:104790000008024038B54FF4C060FEF7CFF8432060
:1047A0008DF8000001248DF801408DF802408DF84D
:1047B00003406846FEF790F817208DF800008DF84A
:1047C000014002208DF802008DF803406846FEF794
:1047D00083F838BDFEB501210846FEF7CBF84FF44B
:1047E000D050032600908DF8056002208DF804005B
:1047F0000025254F8DF806508DF80750694638463C
:10480000FDF7CEFC0A2209213846FDF71AFD0A22DF
:104810000B213846FDF715FD0A220C213846FDF71D
:1048200010FD012438158DF8064000908DF80740E2
:104830008DF8056069463846FDF7B2FC0A2211463C
:104840003846FDF7FEFC01218803FEF7C3F801217D
:104850008020FEF79BF80021E006FEF779F84FF480
:10486000A060FEF76BF81C208DF808008DF8095049
:104870008DF80A408DF80B4002A8FEF72DF80121B3
:104880000846FEF78FF8FEBD0000024010B501217A
:104890008C072046FEF7B3FB002809D001212046F3
:1048A000FEF79EFB0649086818B10868401E0860BC
:1048B00010BD2046BDE810400021FEF794BB00006B
:1048C000300000200121FCF7F3BD0221FCF7F0BD10
:1048D00070B50446017A0025C06801290CD0C16872
:1048E00041F04001C160204600F0ACF8217A4FF45D
:1048F000803003291DD01EE0816B627A21F4803163
:104900000AB141F480118163E068C16821F040116F
:1049100021F0880121F4202141F01001C1602046DE
:1049200000F090F8E07801283DD1E1682A20886005
:104930002EE04FF44030617A40F4301009B140F479
:104940008010E16888631420FFF7BCFFE168C86845
:10495000227A032A01D140F48030C860207A0328EB
:1049600016D1E068016B21F0406101F1806121F412
:104970007F0141F0805606F534160663C820FFF724
:10498000A1FFE16846F400000863C820FFF79AFF22
:10499000E078012807D1E068816821F01E010A3122
:1049A00041F020018160284670BD00002DE9F041F2
:1049B000002704463E463D46FFF7C0FED4F80C01F2
:1049C00005600121204600F01BFA6069016821F0B2
:1049D00004010160E07A012813D1E068802141627E
:1049E000284661F30F00E268602161F31F40906286
:1049F000E022284662F30F0061F31F40E168C1F82E
:104A000000011021204600F0B1F8204600F092F895
:104A10004FF0FF3108E000BF04EB860050F8902F04
:104A200091600068C560761C2078B042F4D80121FE
:104A3000204600F03BF8204600F05AF83846BDE822
:104A4000F0810000F8B5002704463E460097124D5D
:104A50000320FFF73AFFE06800690090761CAE4241
:104A600001D90020F8BD00980028F1DA0099002053
:104A700041F0010100910099E2681161E1680A6961
:104A80000092401CA84202D8009AD207F7D1032016
:104A9000FFF71BFF3846F8BD400D0300C06800213A
:104AA000826822F0010282600846704770B50C46A9
:104AB0000546FFF763FE284600F0BAF9C10404D4A6
:104AC000012C08D140F4805002E024B920F4805039
:104AD000D5F8CC100860BDE87040C820FFF7F2BEE2
:104AE000C0680021826842F0010282600846704777
:104AF00010B5C268002319469361C4685A1E6261EA
:104B0000C4686260C4686261C468094AA261C2780C
:104B100002B91021C06841F00C5141F008018269CE
:104B200041F400118A430A438261184610BD000017
:104B30000008008038B5002421460094009A42F015
:104B400010020092009AC3681A61074AC06803699C
:104B50000093491C914202D8009BDB06F7D4032046
:104B6000FFF7B3FE204638BD400D030038B50024E2
:104B700022460094009B43F020030093009B61F3C6
:104B80008A1300930099C36819610749C0680369D3
:104B90000093521C8A4202D8009B9B06F7D4032044
:104BA000FFF793FE204638BD400D030010B500EB23
:104BB0008100002350F8901F4FF00042012464F35D
:104BC000DC420A610068016821F0804141F0004147
:104BD0000160184610BD10B500EB81010022D1F82C
:104BE0009030196841F0404111F4402F09D0C1F3D1
:104BF0008144022C05D04069006910F47F0F03D076
:104C000004E0C068C06AF8E721F00041196010466E
:104C100010BDF0B5074607EB81060020D6F890508E
:104C20000446431E2246AB60FB78012B00D10422D0
:104C300007EB411393F8B15235B1012D1FD0022D6E
:104C400002D0032D27D10EE042F0890545F482629F
:104C500093F8AE5285B993F8B05242F04002D5B104
:104C600042F0200217E093F8AEC242F0990545F4F5
:104C7000C062BCF1000F0ED042F480720BE093F8DA
:104C8000AEC242F0010242F40872BCF1000F02D041
:104C900042F08002F0E7D6F89050EA6001228A40A4
:104CA00079698D6915438D61F9688A6942F00072EE
:104CB0008A6193F8AC1261F39C5493F8AD1261F3DE
:104CC000CE2493F8AE1261F3CF3493F8AF120229D9
:104CD0000CD024F4003193F8B122B3F8B23262F36D
:104CE000934163F30A01032A03D004E044F4003142
:104CF000F1E741F00051D6F890201160F0BDF0B519
:104D000000EB411405460026D4F8BC024FF480772E
:104D1000334668B1B4F8B2221044401EB0FBF2F042
:104D200080B2B84205D912023846C4F8BC2200E06D
:104D3000012094F8AE22AAB1B4F8B2224243C4F8DA
:104D4000BC2262F3120360F3DC4394F8B40205EB77
:104D5000810260F35E73D2F890000361E878012865
:104D600003D007E0D4F8BC22EBE7D2F89030D4F8B7
:104D7000B802586152F8900F0368284600F046F8D0
:104D800060F35D73126823F0804040F000401060D3
:104D9000E87898BB94F8AE0280BBD4F8BC0268B344
:104DA00094F8B12232B1012A11D0022A02D0032A8A
:104DB0001AD10CE0EA68D36AC01CC0F38F009BB222
:104DC000834211D2906940F0200090610CE06A6942
:104DD0001269C01CC0F38F0092B2824204D2E8680C
:104DE000826942F080628261B4F8BC020A4683B2F2
:104DF000D4F8B8020146284600F072FF3046F0BDF4
:104E00004269106861F30100106070474069806872
:104E100040F30000401C7047C068406910F001007A
:104E200000D001207047C068416980690840704720
:104E3000D0F8CC00006820F02E007047406940692F
:104E40007047034610B50020D21C9208D3F8D0302A
:104E500003E01C6841F8044B401C9042F9D308461B
:104E600010BD70B50446FFF7E3FF40F4807554F8B9
:104E7000CC0F05600A20FFF725FD216825F480701E
:104E800008601420FFF71EFD012070BD70B50022E0
:104E90000125C2704026857014461346868001297C
:104EA00001D061B114E0C5720821017004214FF0F6
:104EB000A04241709115C1800221017208E0C372C5
:104EC0000C210170062141701F4A4FF4A061C1807E
:104ED00002F50061C0E9032100210AE002EB411361
:104EE00003F5106600EB810503F53063AE61491CE4
:104EF0006B6543788B42F1D802F5806141614031A6
:104F0000C0F8CC10002108E002EB411300EB810552
:104F100003F5A063491CC5F8903003788B42F3D8A1
:104F2000002108E002EB013300EB810503F580531B
:104F3000491CC5F8D03003788B42F3D802F5606283
:104F4000C0F80C21204670BD0000044010B5C068B8
:104F50000024C268012922F0C04201D019B104E046
:104F600042F0005201E042F08042C2603220FFF77E
:104F7000A9FC204610BD38B504460021C4F8101223
:104F800000200090D4F8AC040168204688470098BF
:104F900020F0005000F1005000900098E168486156
:104FA000012038BD0CB50146D1F890000068009092
:104FB000009820F0004000F100400090009820F0A0
:104FC000804000F180400090009AD1F8900002608B
:104FD00000200190019820F4001000F500100190CD
:104FE0000198CA68506101200CBD7CB505460024BB
:104FF00000262846FFF722FF019000BF1BE0019822
:1050000080B20121A140084214D005F1900050F86F
:105010002400006800900098C0F3C03028B12146F9
:10502000284600F00DF8064304E02146284600F02B
:105030001AFA0643641C2878A042E0D830467CBDAA
:1050400070B586B005460C4605F1900050F8246016
:10505000B0680590F0680490DDE904100840059000
:1050600005F1900050F8240000680390002004909F
:105070000598C0F38000D0B100200190019820F085
:105080000400001D01900198B06005F1900050F8F7
:105090002400C0680190019820F00200801C01905B
:1050A00005F1900050F824000199C16073E0059863
:1050B000C0F3401048B100200190019820F020007A
:1050C000203001900198B06065E00598C0F3C00001
:1050D00078B305F1900050F82400C0680190019861
:1050E00020F00200801C019005F1900050F824008F
:1050F0000199C160052105F523700155002001903B
:10510000019820F01000103001900198B06000204C
:105110000190019820F00800083001900198B060DB
:10512000059820F010000590E1B22846FFF753FDE6
:1051300031E0FFE70598C0F3802060B305F19000EF
:1051400050F82400C0680190019820F00200801CF3
:10515000019005F1900050F824000199C160E1B27E
:105160002846FFF738FD00200190019820F010003C
:10517000103001900198B060082105F523700155A9
:1051800000200190019820F4806000F5806001907B
:105190000198B06000BF0598C0F34020F8B105F158
:1051A000900050F82400C0680190019820F002009F
:1051B000801C019005F1900050F824000199C16015
:1051C000E1B22846FFF707FD00200190019820F486
:1051D000007000F5007001900198B06040E1059802
:1051E00010F0010F71D0E878012812D105F190007C
:1051F00050F824000069029005F52B7000EB441074
:1052000000690299C1F31201411A05F5147040F8C2
:105210002410012105F5237001550021783840F84C
:10522000241000200190019820F00100401C019002
:105230000198B0600398C0F3814020B10398C0F397
:10524000814002282AD105F1900050F82400C0685E
:105250000190019820F00200801C019005F190005F
:1052600050F824000199C160E1B22846FFF7B3FC71
:1052700000200190019820F010001030019001985A
:10528000B06005F52B7000EB4410007E80F001014A
:1052900005F52B7000EB44100176E1E00398C0F3B4
:1052A000814003289AD1039820F0005000F100506B
:1052B000039005F1900050F824000399016001214A
:1052C00005F29B200155CBE0FFE70598C0F34000B5
:1052D000002851D005F1900050F82400C0680190DA
:1052E000019820F00200019005F1900050F8240090
:1052F0000199C16005F52370005D012804D10121E9
:1053000005F29B2001552DE005F52370005D052871
:1053100004D1042105F29B20015523E005F52370FB
:10532000005D062804D005F52370005D082808D12B
:10533000002105F5057040F8241003218730015540
:1053400010E00398C0F3814003280BD105F52B70C2
:1053500000EB4410007E80F0010105F52B7000EB9E
:105360004410017600200190019820F00200801C7A
:1053700001900198B06073E00598C0F3C01040B38D
:1053800005F1900050F82400C0680190019820F0C9
:105390000200801C019005F1900050F82400019952
:1053A000C16005F5057050F82410491C40F8241020
:1053B000062178300155E1B22846FFF70CFC0020A9
:1053C0000190019820F08000803001900198B06039
:1053D00046E00598C0F30010F0B30398C0F3814095
:1053E00003281ED105F1900050F82400C0680190F8
:1053F000019820F00200801C019005F1900050F807
:1054000024000199C160E1B22846FFF7E4FB0020C7
:105410000190019820F01000103001900198B060C8
:1054200018E00398C0F3814020B10398C0F3814095
:1054300002280FD1039820F0004000F100400390B3
:10544000039820F08040039005F1900050F824006C
:1054500003990160032100E002E005F52370015586
:10546000012006B070BD7FB505460C4605F19000E1
:1054700050F82460B0680390F0680290DDE90210F3
:105480000840039005F1900050F824000068019056
:105490000398C0F38000D0B100200090009820F065
:1054A0000400001D00900098B06005F1900050F8D5
:1054B0002400C0680090009820F00200801C00903A
:1054C00005F1900050F824000099C1608CE1039828
:1054D000C0F3401048B100200090009820F0200058
:1054E000203000900098B0607EE1039810F0010F2A
:1054F00027D0002105F5057040F8241005F1900033
:1055000050F82400C0680090009820F00200801C31
:10551000009005F1900050F824000099C160E1B2BC
:105520002846FFF758FB00200090009820F001006B
:10553000401C00900098B060012105F523700155D2
:1055400052E10398C0F3C00010B30020009000980F
:1055500020F00800083000900098B06005F190003D
:1055600050F82400C0680090009820F00200801CD1
:10557000009005F1900050F824000099C160E1B25C
:105580002846FFF728FB052105F5237001552BE17F
:105590000398C0F3001038B3002105F5057040F8FA
:1055A000241005F1900050F82400C0680090009885
:1055B00020F00200801C009005F1900050F82400BB
:1055C0000099C160E1B22846FFF705FB002000907A
:1055D000009820F01000103000900098B060032177
:1055E00005F523700155FFE00398C0F3C01040B3E8
:1055F00005F1900050F82400C0680090009820F059
:105600000200801C009005F1900050F824000099E1
:10561000C160E1B22846FFF7DEFA05F5057050F8E3
:105620002410491C40F82410062178300155002030
:105630000090009820F08000803000900098B060CA
:10564000D2E00398C0F3801038B3002105F505704F
:1056500040F8241005F1900050F82400C068009034
:10566000009820F00200801C009005F1900050F896
:1056700024000099C160E1B22846FFF7ACFA00208F
:105680000090009820F04000403000900098B060FA
:10569000042105F523700155A6E00398C0F380208E
:1056A00060B305F1900050F82400C06800900098A5
:1056B00020F00200801C009005F1900050F82400BA
:1056C0000099C160E1B22846FFF785FA00200090FA
:1056D000009820F01000103000900098B060082171
:1056E00005F52370015500200090009820F480609B
:1056F00000F5806000900098B06075E00398C0F3FA
:105700004000002870D005F1900050F82400C068D7
:105710000090009820F00200009005F1900050F8F1
:1057200024000099C16005F52370005D012815D1A2
:10573000012105F29B2001550198C0F38140022808
:1057400048D105F52B7000EB4410407E80F001013C
:1057500005F52B7000EB441041763BE005F5237016
:10576000005D032804D1022105F29B20015531E0A0
:1057700005F52370005D04280FD105F52B7000EBB3
:1057800044100079012803D1E1B22846FFF70EFA50
:10579000022105F29B2001551CE005F52370005DF8
:1057A000052804D1042105F29B20015512E005F5DE
:1057B0002370005D06280DD105F5057050F8240012
:1057C000032807D1032105F29B20015500218738CA
:1057D00040F8241000200090009820F00200801C67
:1057E00000900098B06000BF012004B070BD7CB58F
:1057F0000446E068C06A00900098C0F3417104F567
:105800002B7000EB41100069C01CC0F38F0673E0E1
:105810004FF6FF71009801EA80050098C0F34171CE
:1058200004F52B7000EB41100069A84215D20098D6
:10583000C0F3417104F52B7000EB4110008A85B272
:1058400000200190019820F0200020300190E068B5
:10585000806901998843E16888610098C0F34171CB
:1058600004F52B7000EB41100069C01CC0F38F06DB
:105870000098C0F34172C0F3417304F52B7000EB44
:1058800043102B46C168204600F02AFA0098C0F366
:10589000417104F52B7000EB4110C068411900986C
:1058A000C0F3417204F52B7000EB4210C160009808
:1058B000C0F3417104F52B7000EB41100069411BEE
:1058C0000098C0F3417204F52B7000EB42100161A7
:1058D0000098C0F3417104F52B7000EB4110406952
:1058E00041190098C0F3417204F52B7000EB42108F
:1058F0004161E068C06A0090009880B2B0420ADD61
:105900000098C0F3417104F52B7000EB4110006961
:1059100000287FF47DAF01207CBDFEB50446002643
:1059200000250020009002900190D4F8CC0000687F
:105930000290D4F8CC0000680190019820F0040097
:105940000190019820F002000190019820F00800D9
:105950000190019820F0200001900298C0F34000CF
:1059600060B1D4F8AC04416820468847019820F023
:105970000200801C0190012645F001050298C0F349
:10598000C000002840D0019820F0080008300190A5
:105990000298C0F38000002836D00121C4F810120C
:1059A0000298C0F34140022804D00298C0F341405D
:1059B000012828D16069006800900298C0F3414036
:1059C000022811D141F2707160694160009800F0C5
:1059D0000300022818D0E07A012803D102212046D2
:1059E000FFF70EFA01260FE04BF680316069416047
:1059F000009800F00300012806D001212046FFF79F
:105A0000FFF9012600E001260298C0F3401030B1F2
:105A1000019820F020002030019045F0010516B1DA
:105A20002046FFF71EFA0199D4F8CC000160284601
:105A3000FEBD7CB504466069006900900098C0F323
:105A4000417104F52B7000EB41100069C01CC0F3DC
:105A50008F0674E04FF6FF71009801EA8005009808
:105A6000C0F3417104F52B7000EB41100069A842AE
:105A700016D20098C0F3417104F52B7000EB411071
:105A8000008A85B200200190019820F0806000F12A
:105A900080600190E068806901998843E1688861CD
:105AA0000098C0F3417104F52B7000EB41100069C0
:105AB000C01CC0F38F060098C0F34172C0F341735D
:105AC00004F52B7000EB43102B46C168204600F014
:105AD00007F90098C0F3417104F52B7000EB4110F9
